S0100000657468796C656E652E73726563B6
S3150800000000A0002085960008D5960008D596000819
S31508000010D5960008D5960008D59600080000000079
S31508000020000000000000000000000000D59600084F
S31508000030D596000800000000D5960008D596000859
S31508000040D5960008D5960008D5960008D5960008D6
S31508000050D5960008D5960008D5960008D5960008C6
S31508000060D5960008D5960008D5960008D5960008B6
S31508000070D5960008D5960008D5960008D5960008A6
S31508000080D5960008D5960008D5960008D596000896
S31508000090D5960008D5960008D5960008D596000886
S315080000A0D5960008D5960008D5960008D596000876
S315080000B0D5960008D5960008D5960008D596000866
S315080000C0D5960008D5960008D5960008D596000856
S315080000D0D5960008D5960008D5960008D596000846
S315080000E0D5960008D5960008D5960008D596000836
S315080000F0D5960008D5960008D5960008D596000826
S31508000100000000000000000000000000D59600086E
S31508000110D5960008D5960008C1280008D596000887
S31508000120D5960008D5960008D5960008D5960008F5
S31508000130D5960008D59600080000000000000000CB
S31508000140D5960008D5960008D59600080000000048
S315080001500000000000000000000000000000000091
S315080001600000000000000000D5960008D59600089B
S31508000170D5960008000000000000000000000000FE
S30D0800018000000000D5960008F6
S315080001C010B5054C237833B9044B13B10448AFF383
S315080001D000800123237010BDB00900200000000034
S315080001E0C0E10008084B10B51BB108490848AFF331
S315080001F000800848036803B910BD074B002BFBD0E5
S31508000200BDE81040184700BF00000000B4090020F0
S31508000210C0E10008B0090020000000000120704776
S3150800022001207047704700BF704700BF0120704724
S315080002300120704701207047012070470120704750
S315080002400120704701207047012070470368186C29
S31508000250704700BF704700BF704700BF704700BFB8
S31508000260704700BF704700BF0120704701207047E4
S31508000270406C7047806C7047026838B5936803F025
S315080002800303012B02D00023184638BD1168C9079D
S31508000290F9D5916801F00D01012909D0426C42F0A7
S315080002A010024264826C42F001028264184638BD2C
S315080002B09368032143F0020393601160044603F038
S315080002C0B7FC054623689B68DB07DCD503F0B0FC62
S315080002D0401B0228F6D9636C43F010036364A36CD1
S315080002E043F00103A3640123CEE700BF03689A68BD
S315080002F012F00C0F28D0DA6870B59501044602D5BD
S31508000300C269012A3DD060299A682BD0550702D5C3
S315080003109A6890074BD50C2922D09A68120728D4D8
S31508000320602924D06C291BD10C2503F081FC0646D4
S3150800033004E003F07DFC801B0B2807D823689B6824
S315080003401D42F6D1002070BD00207047636C43F053
S3150800035010036364A36C43F00103A364012070BD1A
S315080003600425E2E7150702D59A68900704D50825FB
S31508000370DBE79A689607D3D49A6842F020029A6017
S31508000380CEE78269012ABED11A68500606D40A4AFF
S3150800039001E0013ADAD019684906FAD540221A600E
S315080003A09A685607DCD59A689207D9D40C219A68B8
S315080003B042F010029A60AEE700940900026838B568
S315080003C0936803F00303012B0DD09168174B0B407C
S315080003D073B1436C43F010034364836C43F0010329
S315080003E08364012038BD1368D907EED5002038BDCF
S315080003F0936843F001039360044603F019FC05462D
S3150800040004E003F015FC401B022804D823681B6887
S31508000410DB07F6D5EAE7636C43F010036364A36C65
S3150800042043F00103A364012038BD00BF3F000080EC
S31508000430406A436C43F040034364836C43F004030F
S315080004408364FFF70FBF00BF406AFFF707BF00BF0F
S31508000450436A5A6C12F0500F18D15A6C196842F454
S3150800046000725A64CA6812F4406F0CD1DA6952B93C
S315080004705A6C22F480725A645A6CD20403D45A6CA9
S3150800048042F001025A641846FFF7E6BEDB6B1B6BA7
S31508000490184700BF70B596B000230093002800F0F7
S315080004A0A380436C13F01003044617D1456C002D46
S315080004B000F08D8022689168CD007CD5916888000F
S315080004C079D4616CC90600D463B1636C23F0120356
S315080004D043F010030120636416B070BD436CDA065E
S315080004E0F3D4026893685E07EFD4636C23F48173D0
S315080004F043F00203B2F1A04F6364814B00F0C18060
S315080005009A4200F0BC807F4B9A4200F0E3807E4915
S315080005108A4200F0E380936803F00303012B66D157
S315080005201368DB0763D5E568A66BA368E169606AAB
S31508000530012E43EA050343EA41330CBF00254FF475
S315080005408055012843EA050300F09180E16A0129F4
S315080005500BD06C48824200F0A68000F5807082427B
S3150800056000F0A180206B03430B43916811F00C0F38
S315080005700BD1D068616BA56920F48040490020F052
S31508000580020041EA8531D0600B43D5685F4920698E
S3150800059029400B43D3600128136B61D023F00F0366
S315080005A013630020A064636C23F0030343F0010384
S315080005B0636416B070BD636C23F0120343F0100336
S315080005C06364A36C43F00103A364636C7DE78564ED
S315080005D00565C56480F84050FFF724FE22689368D5
S315080005E0DB000CD52B4666E7012016B070BD4848DF
S315080005F08168636821F440310B43836093E72046A2
S31508000600FFF73AFE626CD60603463FF553AF00285D
S315080006107FF450AF606C22683E493F4D096820F46C
S31508000620885020F0020040F002006064906820F0D4
S3150800063040509060A5FB0101890C906801EB81018F
S31508000640490040F0805090600091009900293FF4DD
S3150800065032AF00990139009100990029F9D12AE7AA
S31508000660206A23F00F01431E0B43136399E731BB3E
S31508000670A16A013943EA414343F4803366E74FF000
S31508000680A04326480193936803F00303012B2ED059
S3150800069001998B6803F00303012BA9D10B68D907CD
S315080006A03FF541AFA4E7B1F5307F1AD0B1F5807FA9
S315080006B01AD0B1F5E07F08BF4FF4807152E7616C3C
S315080006C021F0220141F020016164A16C41F0010191
S315080006D0A1643BE70C4B01930D48D4E701930C4802
S315080006E0D1E74FF4E0713DE74FF430713AE713680C
S315080006F0DD073FF518AF01990029CAD178E700BF91
S3150800070000010050000400500005005007C0F0FF2B
S31508000710000700500000002083DE1B430003005042
S31508000720002800F09F80F0B5436C43F0020397B0B1
S3150800073043646C210446FFF7D9FD054628B100231A
S31508000740284684F8403017B0F0BD2268D36843F4D1
S315080007500013D3602046FFF78FFD0546002840F0BA
S3150800076083802368534F544E544855490122626486
S315080007705A6822F4FF6222F007025A6040F2FF72BA
S315080007801A609A6822F0E0429A609A6842F000522B
S315080007909A60DA681740DF605F693E405E619E696D
S315080007A0484F06F078469E611E6A06F0F0261E62DD
S315080007B05E6A06F0FF265E629E6A06F0FF269E6265
S315080007C01E6B30401863586B0A4601405963996B93
S315080007D00A409A63DA6B22F4FB6222F00702DA63B4
S315080007E01A6E3E463846394617401F665A6E1640F8
S315080007F05E669A6E10409866DA6E1140D966D3F82E
S31508000800A020D20CD204C3F8A020D3F8A420D20C7E
S31508000810D204C3F8A420D3F8B020D20CD204C3F86B
S31508000820B020D3F8B420B3F1A04F22F07F12C3F85A
S31508000830B420254A22D093421ED0244A93422ED071
S3150800084023498B422CD09A6802F00302012A0DD163
S315080008501B68DB070AD52046FFF7E6FC0023A364DE
S3150800086063646CE701207047012568E719498A68BF
S31508000870194B13408B60EEE74FF0A04217490192DF
S315080008809A6802F00302012A0DD0019A936803F0D0
S315080008900303012BEBD11368DA07DCD4E7E70C4A2C
S315080008A001920C49ECE71B68D807D4D4019A002AB0
S315080008B0ECD1DCE704800080070000C0300882E045
S315080008C0200882E000F0FF030001005000040050F9
S315080008D00005005000070050E0103CFE00030050E1
S315080008E038B503689B6813F0040401D0022038BDAC
S315080008F090F84030012BF9D0012380F840300546A6
S31508000900FFF75CFD002849D16A6C2B6822F47062F7
S3150800091022F0010242F48072B3F1A04F6A6440D01B
S315080009203C4A934257D002F5C0629268D1063AD043
S3150800093039498B4237D06A6C42F480126A64CA68B5
S31508000940C2F340622AB16A6C22F4405242F48052E1
S315080009506A646A6C12F480521CBFAA6C22F0060202
S31508000960AA6400201C22B3F1A04F85F840001A6043
S3150800097021D0284A93423CD0284A9168CC0624D0F4
S31508000980916801F01F0105291FD0926802F01F0225
S31508000990092A1AD0204A934217D038BD85F8404014
S315080009A038BD1F4A92686A6C22F480126A64DA6853
S315080009B09201CED5C7E71A4A9168C90605D091684B
S315080009C001F01F01052900D092689A6842F00402D6
S315080009D09A60002038BD124A9268D006E3D06A6C45
S315080009E04FF0A04142F480126A64CA68C2F34062BA
S315080009F0A8E702F500729168CD06E6D0916801F085
S31508000A001F010529E1D0926802F01F02092ADCD0ED
S31508000A1038BD00BF00010050000400500007005018
S31508000A200003005090F84020012A01D102207047A7
S31508000A30012310B56C2180F840300446FFF756FCB8
S31508000A4018B1002384F8403010BD2046FFF714FC87
S31508000A500028F6D1636C23F4885323F0010343F08E
S31508000A6001036364EDE700BF2DE9F04144690368BB
S31508000A70082C11D0B3F1A04F75D0454D454C464AC8
S31508000A80AB4218BF2246946814F01F043FD0926800
S31508000A9012F4404F5DD10C24B3F1A04F65D03C4A07
S31508000AA0934265D002F5C0629268D2063BD1DF68F0
S31508000AB00D46064603F0BCF88046326801E06B1C1A
S31508000AC036D113681C42FAD0736C43F4007373640E
S31508000AD0D36813F4406F13D1BD0411D413681807F3
S31508000AE00ED5936813F0040F736C48D123F4807302
S31508000AF07364736CD90403D4736C43F00103736491
S31508000B0017F480400CBF14600020BDE8F081DA6855
S31508000B10D507C0D5436C80F8404043F020034364B2
S31508000B200120BDE8F0811D4A9342C0D0D768BFE7CF
S31508000B302DB103F07DF8C8EB00008542BDD2736C79
S31508000B40002243F00403736486F840200320BDE8BE
S31508000B50F081436C002243F02003436480F8402070
S31508000B600120BDE8F0810C4A8DE70B4A92689EE7A2
S31508000B70094A9268D2069AD04FF0A042D6E743F0C7
S31508000B8020037364B36C43F00103B364B8E700BF92
S31508000B9000010050000700500003005000040050F8
S31508000BA0F8B506460C46154603F042F8074631687E
S31508000BB001E06B1C18D10B6834EA0303F9D1B4F5CC
S31508000BC0807F37D01FD9B4F5007F2CD0B4F5806F5D
S31508000BD022D1736C43F480437364B36C43F0080307
S31508000BE0B36400200C60F8BD25B103F021F8C01BE2
S31508000BF08542DCD2736C002243F00403736486F8E2
S31508000C0040200320F8BD802C06D1736C43F4803352
S31508000C10736400200C60F8BDB36B012B11D0102350
S31508000C200B600020F8BD736C43F4802373640020C6
S31508000C300C60F8BD736C43F40033736400200C60D9
S31508000C40F8BD736C43F480637364B36C43F00203BA
S31508000C50B364E4E738B503689B6813F0040401D06D
S31508000C60022038BD90F84030012BF9D0012380F8D6
S31508000C7040300546FFF7A2FB002858D16A6C2B685E
S31508000C8022F4706222F0010242F48072B3F1A04F9E
S31508000C906A644FD0484A93426FD002F5C0629268A0
S31508000CA0D10649D045498B4246D06A6C42F4801237
S31508000CB06A64CA68C2F340622AB16A6C22F4405276
S31508000CC042F480526A646A6C12F480521CBFAA6CA1
S31508000CD022F00602AA646A6900201C2185F84000F1
S31508000CE0082A19605A683FD122F004025A605A68E5
S31508000CF042F008025A60AA6B012A39D0B3F1A04F14
S31508000D0022D02D4A934246D02D4A9168CC0625D04A
S31508000D10916801F01F01052920D0926802F01F0290
S31508000D20092A1BD0254A934218D0002038BD85F8D9
S31508000D30404038BD234A92686A6C22F480126A647D
S31508000D40DA689201BFD5B8E71E4A9168C90605D088
S31508000D50916801F01F01052900D092689A6842F04F
S31508000D6004029A60002038BD42F00C025A60C2E7BD
S31508000D705A6822F010025A60C0E7124A9268D006F2
S31508000D80DAD06A6C4FF0A04142F480126A64CA68ED
S31508000D90C2F3406290E702F500729168CD06DDD095
S31508000DA0916801F01F010529D8D0926802F01F0248
S31508000DB0092ABAD1D2E700BF00010050000400504A
S31508000DC0000700500003005090F84020012A01D186
S31508000DD002207047012310B56C2180F84030044684
S31508000DE0FFF784FA18B1002384F8403010BD226852
S31508000DF0536823F01C0353602046FFF73DFA00288A
S31508000E00F1D1636C23F4885323F0010343F0010303
S31508000E106364E8E7F8B50468A5686D0701D502209C
S31508000E20F8BD90F84030012BF9D00123B4F1A04F5A
S31508000E3080F8403065D0454B9C4262D0444B9B6855
S31508000E4013F01F0F0CBF012300231BB980F8403095
S31508000E500120F8BD16460D460746FFF7AFFA0028EB
S31508000E6057D17B6C396823F4706323F0010343F48C
S31508000E708073B1F1A04F7B644FD0344B994256D062
S31508000E8003F5C0639B68D80649D0324A914246D0DA
S31508000E907B6C43F480137B64D368C3F340632BB144
S31508000EA07B6C23F4405343F480537B647B6CF86B70
S31508000EB0DFF8B0E0284A13F480531CBFBB6C23F05C
S31508000EC00603BB640024254B87F84040C3621C23F5
S31508000ED0C0F828E002630B604B6843F010034B60D0
S31508000EE0CB6843F0010E2A463346C1F80CE0403180
S31508000EF005F098FA3A68936843F00403204693602D
S31508000F00F8BD174B9B6813F01F0F0CBF0123002376
S31508000F109BE7002387F84030F8BD114B9B687B6C34
S31508000F2023F480137B64CB689A01BFD5B8E70C4BD2
S31508000F309B68DB06F3D07B6C4FF0A04243F480132A
S31508000F407B64D368C3F34063A9E700BF0001005080
S31508000F500007005000040050310400084904000846
S31508000F60000300505104000890F84020012A01D1DE
S31508000F700220704738B5012380F840306C210546B9
S31508000F80FFF7B4F9044620B10023204685F840301F
S31508000F9038BD2A68E86BD36823F00103D36005F0EF
S31508000FA083FA044698B92A68536823F010035360F5
S31508000FB02846FFF761F904460028E5D16B6C23F44F
S31508000FC0885323F0010343F001036B64DCE76B6C81
S31508000FD02A6843F040036B64536823F01003536098
S31508000FE02846FFF749F9CFE70368186C704700BF32
S31508000FF0F8B590F84030012B01D10220F8BD012741
S3150800100080F8407004460E46FFF736F90546F8B9EB
S31508001010236867649A68BE4222F080429A6028D0A4
S315080010209A6842F000429A6002F002FE064604E020
S3150800103002F0FEFD801B0A2810D823689B68002B47
S31508001040F6DB636C23F0030343F00103636400E0FB
S315080010503D460023284684F84030F8BD636C23F0EB
S31508001060120343F010030022636484F84020012031
S31508001070F8BD9A6842F080429A60D1E70368D3F8CF
S31508001080B40001290CBF000C00F07F00704700BFB8
S3150800109090F84030012B17D030B40468A3680125B6
S315080010A003F00303AB4280F840500FD0436C43F083
S315080010B020034364836C43F001038364002380F8B0
S315080010C0403030BC18467047022070472368DB075B
S315080010D0ECD5A36813F00C0FE8D1D4F8B430012985
S315080010E00BBF23F4FE0323F07F0343EA02421A43AD
S315080010F0C4F8B420E2E700BF38B503689B6813F06C
S31508001100080401D0022038BD90F84030012BF9D0F0
S31508001110012380F840300546FFF750F9002841D1F1
S315080011206B6C2A6823F4405323F0010343F480537D
S31508001130B2F1A04F6B6438D0324B9A424CD003F5CB
S31508001140C0639B68DB0632D02F4B9A422FD06B6C5C
S3150800115043F480136B646B6C13F4807308BFAB6441
S315080011600020602385F840001360D36813F00073ED
S3150800117022D1B2F1A04F20D022498A4231D0234948
S315080011808868C40623D0886800F01F0006281ED089
S31508001190896801F01F01072919D01B498A4216D010
S315080011A0002038BD85F8404038BD194B9B686B6CEC
S315080011B023F480136B64CEE738BD154B9968C906CE
S315080011C005D0996801F01F01062900D09B6893682D
S315080011D043F008039360E3E70D4B9B68D806E6D017
S315080011E0B5E701F500718868C506F0D0886800F093
S315080011F01F000628EBD0896801F01F010729CFD107
S31508001200E5E700BF00010050000400500007005049
S315080012100003005090F84030012B11D00368DA68BB
S315080012200123910110B5044680F840300AD5426C76
S3150800123042F0200218466264002384F8403010BD4C
S31508001240022070476021FFF751F80028F4D123687F
S315080012509B685A0710D4636CDB050DD42046FFF74C
S315080012600BF80028E8D1636C23F4885323F00103B4
S3150800127043F001036364DFE7636C23F4805363641C
S31508001280DAE700BF42690368082A2DE9F04114BF6E
S3150800129060254025B3F1A04F06460C464AD02A4A97
S315080012A093424AD002F5C0629268D2063DD1DF6801
S315080012B002F0BEFC8046326801E0631C24D1136844
S315080012C01D42FAD0736C43F400537364D36C13F065
S315080012D0C00F07D0BC0110D4D36813F4406F0CD1EB
S315080012E0B8040AD4736C23F480537364736CD905F9
S315080012F003D4736C43F00103736417F480400CBF86
S3150800130015600020BDE8F0812CB102F091FCC8EB15
S3150800131000008442CFD2736C002243F00403736446
S3150800132086F840200320BDE8F081084A9342BED0E3
S31508001330D768BDE7064A9268B9E7054A9268D206B1
S31508001340B5D04FF0A042F3E700010050000400506A
S315080013500003005038B503689B6813F0080401D0F1
S31508001360022038BD90F84030012BF9D0012380F8CF
S3150800137040300546FFF722F8002852D16B6C2A68E0
S3150800138023F4405323F0010343F48053B2F1A04FF2
S315080013906B6449D03D4B9A4263D003F5C0639B68A2
S315080013A0D90643D03A4B9A4240D06B6C43F480132B
S315080013B06B646B6C13F4807308BFAB640021602305
S315080013C085F840101360D3689B0203D5536843F42D
S315080013D0806353606B69082B53682CD123F0200374
S315080013E05360536843F040035360D06810F00070B0
S315080013F035D1B2F1A04F22D0244B9A4236D0254B94
S315080014009968CC0625D0996801F01F01062920D0D5
S315080014109B6803F01F03072B1BD01D4B9A4218D05D
S3150800142038BD85F8404038BD1B4B9B686B6C23F470
S3150800143080136B64BDE743F060035360D5E7164B32
S315080014409968C90605D0996801F01F01062900D0D8
S315080014509B68936843F008039360002038BD00201A
S3150800146038BD0D4B9B68D806E0D09EE703F50073A0
S315080014709968CD06EDD0996801F01F010629E8D0D4
S315080014809B6803F01F03072BE3D038BD000100500B
S3150800149000040050000700500003005090F8403048
S315080014A0012B11D00368DA680123910110B50446AF
S315080014B080F840300AD5426C42F020021846626431
S315080014C0002384F8403010BD022070476021FEF7E3
S315080014D00DFF0028F4D123685A6822F48C625A60FA
S315080014E09B685A0710D4636CDB050DD42046FEF7BB
S315080014F0C3FE0028E4D1636C23F4885323F0010368
S3150800150043F001036364DBE7636C23F4805363648D
S31508001510D6E700BFF0B5044690F84000012897B01A
S3150800152007D02668B568012015F0040584F8400040
S3150800153002D0022017B0F0BDB6F1A04F0AD02E4B4C
S315080015409E4252D0636C84F8405043F02003636493
S3150800155017B0F0BD294B0193204616460D46FEF7F7
S315080015602DFF18B1002384F84030E3E701A8FEF701
S3150800157025FF0028F6D1626C214B2768134043F4F7
S3150800158080736364FB689B0105D5636C23F4405341
S3150800159043F480536364E06BDFF878E019491A4A2C
S315080015A00023B7F1A04F84F84030A364C0F828E0C0
S315080015B0C16202631DD01149144B154A8F4214BFEC
S315080015C0194611461C233B607B6843F0100E2A46D9
S315080015D033460C31C7F804E004F024FF2268936808
S315080015E043F0040393600020A4E703F58073019396
S315080015F0B2E70749E6E700BF0004005000010050C3
S31508001600FEF0EFFF49040008310400080007005007
S31508001610000300505104000890F84030012B01D116
S315080016200220704770B5012696B080F840606C219C
S315080016300446FEF75BFE054630BB2368B3F1A04FB0
S3150800164028D0314A93425BD0636C84F8400043F05B
S3150800165040033046636416B070BD2268536823F0B1
S31508001660100353602046FEF707FE01280CD001A898
S31508001670FEF702FE012807D0636C23F4885323F093
S31508001680010343F0010363640023284684F84030CD
S3150800169016B070BD03F58073019302F0C9FA0546CA
S315080016A023689B685A0703D4019B9B685B070DD583
S315080016B002F0BEFA401B0B28F2D9636C002243F0F5
S315080016C01003636484F840200120E1E7E06B04F02E
S315080016D0EBFE05460028C0D0636C226843F0400341
S315080016E06364536823F0100353602046FEF7C4FD75
S315080016F001A8FEF7C1FD636C43F010036364C3E7FA
S31508001700024B0193C9E700BF0004005000050050D2
S315080017100168B1F1A04F07D00548064A064B814239
S3150800172008BF1346D8687047024BD868704700BF91
S3150800173000010050000300500007005003290FD095
S31508001740042909D0022903D00368D3F8800070471A
S315080017500368D3F8840070470368D3F88C00704791
S315080017600368D3F88800704790F84020012A01D111
S315080017700220704710B50123044680F840300C213A
S31508001780FEF7B4FD23689B681A0707D5636C23F434
S3150800179080736364002384F8403010BD636CDB04F7
S315080017A0F4D42046FEF768FD0028F3D1636C23F4D1
S315080017B0885323F0010343F001036364EAE700BF9B
S315080017C090F84020012A01D10220704710B5012364
S315080017D0044680F840300C21FEF788FD23689A6895
S315080017E0110707D5636C23F480736364002384F8B8
S315080017F0403010BD626CD204F4D45A6822F01C0240
S315080018005A602046FEF738FD0028EFD1636C23F4B2
S31508001810885323F0010343F001036364E6E700BF3E
S3150800182038B590F84030012B01D1022038BD01238C
S31508001830044680F840300C21FEF758FD23689A6864
S315080018401107054608D5636C23F480736364002387
S31508001850284684F8403038BD626CD204F3D4DA687E
S31508001860E06B22F00102DA6004F01EFE054660B164
S31508001870636C226843F040036364536823F01003E3
S3150800188053602046FEF7F8FCE1E72268536823F028
S31508001890100353602046FEF7EFFC05460028D6D114
S315080018A0636C23F4885323F0010343F00103636454
S315080018B0CDE700BF90F84030012B01D102207047D8
S315080018C070B5044601260C2196B080F84060FEF7F4
S315080018D00DFD23689A681107054611D4626C12F447
S315080018E080520DD1B3F1A04F14D032498B425ED04D
S315080018F0636C84F8402043F040033046636407E095
S31508001900636C23F4807363640023284684F84030AC
S3150800191016B070BD03F58073019302F089F9054688
S3150800192023689B685A0703D4019B9B685B070DD500
S3150800193002F07EF9401B0B28F2D9636C002243F0B3
S315080019401003636484F840200120E1E7E06B04F0AB
S31508001950ABFD054698B1636C226843F040036364A7
S31508001960536823F0100353602046FEF785FC01A850
S31508001970FEF782FC636C43F010036364C4E72268D5
S31508001980536823F0100353602046FEF775FC0128C0
S31508001990BAD001A8FEF770FC0128B5D0636C23F411
S315080019A0885323F0010343F001036364ACE7024B59
S315080019B00193B2E70004005000050050704700BFCD
S315080019C0704700BF704700BF704700BF03681A68BA
S315080019D0520710B5044628D55A68500725D5626CB3
S315080019E0D00603D4626C42F400726264B3F1A04F6D
S315080019F000F0D580994A934200F05681984A91683A
S31508001A00C80600F0D680916801F01F01052900F08C
S31508001A10D080926802F01F02092A00F0CA80914A13
S31508001A20934200F0C680D168C4E01A6811074CD406
S31508001A301A68920620D55A6890061DD5626CB3F1CD
S31508001A40A04F42F40052626475D0844A934200F073
S31508001A504081834A9168C90677D0916801F01F01D1
S31508001A60052972D0926802F01F02092A6DD07D4AB4
S31508001A7093426AD0D16869E01A68510621D41A6877
S31508001A80110603D55A68120600F1DD801A68D005DA
S31508001A9003D55A68D10500F1E9801A68920503D57D
S31508001AA05A68900500F1EE801A68D10602D55A6880
S31508001AB0D2060ED41A68520502D55A6850052BD498
S31508001AC010BD5A685206DAD5B8E75A681207AFD574
S31508001AD085E7A26B012A10D0B3F1A04F00F0208150
S31508001AE05E485F49604A834218BF0A469168C8063D
S31508001AF040F0D480DA68D1070BD5636C43F4806371
S31508001B006364A36C43F00203A3642046FEF7AAFBB2
S31508001B10236810221A60CDE7626C42F48042626440
S31508001B20A26C4FF4806142F00802A2642046196054
S31508001B30FFF746FF10BD4C4A9168C80605D0916864
S31508001B4001F01F01052900D09268D968DA6C12F0F5
S31508001B50C00F07D088016FD4DA6812F4406F6BD1D2
S31508001B608A0469D41A68500666D5B3F1A04F44D0E2
S31508001B703A4A934200F0D680394A9168C80646D058
S31508001B80916801F01F01062941D0926802F01F02F0
S31508001B90072A3CD0334A934239D0D26838E0324AD1
S31508001BA09168C90605D0916801F01F01052900D082
S31508001BB09268D968DA6812F4406F17D1890415D487
S31508001BC01A68120712D59A68500700F1A0805A6859
S31508001BD022F00C025A60636C23F480736364636CAE
S31508001BE0D90403D4636C43F0010363642046FEF70B
S31508001BF033FB23680C221A601AE71B4A9168C90648
S31508001C0005D0916801F01F01062900D09268DA68AC
S31508001C10910211D49A68120770D45A6822F06002A9
S31508001C205A60636C23F480536364636CD80503D4E9
S31508001C30636C43F0010363642046FFF7BFFE236825
S31508001C4060221A601BE7636C43F4803363642046A2
S31508001C50FEF706FB236880221A6017E7000100508A
S31508001C60000700500004005000030050636C43F462
S31508001C70003363642046FFF7A5FE23684FF480729D
S31508001C801A600AE7636C43F4802363642046FFF70F
S31508001C909BFE23684FF400721A6005E7926812F4F7
S31508001CA0404F7FF42AAF34E702F500729168C906FF
S31508001CB03FF47FAF916801F01F0105293FF479AF22
S31508001CC0926802F01F02092A3FF473AF4FF0A04250
S31508001CD0A9E602F500729168C8063FF436AF916826
S31508001CE001F01F0105293FF430AF926802F01F0288
S31508001CF0092A3FF42AAF4FF0A042BBE6636C43F0D3
S31508001D0010036364A36C43F00103A36494E7636C54
S31508001D1043F010036364A36C43F00103A36465E70F
S31508001D200B4AE3E602F500729168C9063FF46FAF05
S31508001D30916801F01F0106293FF469AF926802F025
S31508001D401F02072A3FF463AF4FF0A04225E700BF02
S31508001D5000030050F0B4024696B092F840300020D6
S31508001D60012B009047D0106884680123670782F822
S31508001D7040300AD5516C41F02001516400211846C3
S31508001D8082F8401016B0F0BC70474B68042B36D961
S31508001D90092B79D803EB43035B001E3B466B0C68A3
S31508001DA01F259D4026EA050504FA03F32B434363E2
S31508001DB0836813F00C0F33D1092C04EB440358D96C
S31508001DC0A3F11E0587698B680726AE4027EA060633
S31508001DD0AB4033438361C3680D694E69C3F3C103DE
S31508001DE05B00013D06FA03F3032D00F2CF80DFE81E
S31508001DF005F0877D7369022016B0F0BC704703EBC7
S31508001E004303066B0C685B001F259D4026EA050503
S31508001E1004FA03F32B430363836813F00C0FCBD048
S31508001E20836803F00303012B1FD0CB68012B00F056
S31508001E308F80D0F8B0100123A34021EA0303C0F82D
S31508001E40B030B0F1A04F00F0BC80974D974B984941
S31508001E50A84208BF0B46102C00F09080112C00F009
S31508001E609180122C56D0002388E70368DE07DCD55C
S31508001E70F9E747698D6807269E4027EA060605FAA8
S31508001E8003F333434361A6E70E2B03EB43034FEA01
S31508001E9043030BD83C3B866B0C681F259D4026EAFE
S31508001EA0050504FA03F32B43836381E75A3BC66BA4
S31508001EB00C681F259D4026EA050504FA03F32B4303
S31508001EC0C36375E7C66E7B4D354045EA846545F0C4
S31508001ED000463343C366A3E7866E764D354045EA2A
S31508001EE0846545F000463343836699E7466E714D2F
S31508001EF0354045EA846545F00046334343668FE737
S31508001F00066E6C4D354045EA846545F00046334318
S31508001F10036685E799684F02A5D4B0F1A04F6249D8
S31508001F2061D088425DD06449884200F08B80634D59
S31508001F30A84258D0816801F0030101297BD10168C4
S31508001F40C9075CD5536C43F020035364012315E796
S31508001F50D0F8B050A3402B43092CC0F8B03032D982
S31508001F6004EB4403896885691B3B07269E4001FAF2
S31508001F7003F325EA06010B43836162E799680D02BC
S31508001F80CBD570E79968C901C7D56CE7056EA30676
S31508001F9005F0F8459D4249D0456E05F0F845AB4237
S31508001FA03FD0856E05F0F845AB4235D0C56E05F0D5
S31508001FB0F845AB427FF434AFC36E23F00043C366E3
S31508001FC02EE73B4B47E7631C8968456903EB4303E8
S31508001FD007269E4001FA03F325EA06010B434361EF
S31508001FE02FE74FF0A0410191816801F00301012913
S31508001FF051D0019DA96801F0030101291ED0102CBA
S315080020002DD0112C22D0122C7FF42DAF996841F4D3
S31508002010800199600023B1E6856E25F00045856646
S31508002020C4E7456E25F000454566BAE7056E25F016
S3150800203000450566B0E7102CE3D114E72968CD07FB
S3150800204080D4DCE701F580710191CDE7B0F1A04FAE
S315080020507FF409AF996841F08071996003E7B0F1A0
S31508002060A04F7FF400AF164998680968154CB1FB74
S31508002070F4F40A2101FB04F140F400009860009191
S31508002080009B002B3FF4EFAE009B013B0093009BA7
S31508002090002BF9D1E7E60168CE073FF553AF019D5E
S315080020A0002DA7D1ABE700BF000100500007005084
S315080020B00003005000F0FF830004005000050050A4
S315080020C00000002040420F00F0B590F8403097B06D
S315080020D00024012B009400F0B28002460369012017
S315080020E082F84000002B4BD14B68012B00F0318160
S315080020F0506C136840F02000506401209C68250746
S315080021000DD40C6A002C40F0AB80DD684C6ACE69B1
S3150800211025F4401545EA445444EA0654DC609C68B4
S3150800212014F00C0F61D18C6A0D6A012CDC6824F05E
S31508002130007400F04581012DDC6000F0FF800F6817
S31508002140092F07EB47047DD85E698D684FF0070EA7
S315080021500EFA04FE26EA0E0605FA04F434435C6118
S31508002160DC680D694E69C4F3C1046400013D06FAD2
S3150800217004F4032D00F22D81DFE805F0B3A92E9FA4
S315080021808D698542B0D0106D00287AD18C6A1565A4
S31508002190012CD06400F09F811368B148834205F191
S315080021A0FF3500F0A08100F58070834200F09B8126
S315080021B0CE6A2E4326434C680F68156504EB440423
S315080021C0600002301F25854026EA050507FA00F05B
S315080021D00543D564002091E79E6EA24D354045EA39
S315080021E0876747F0004634439C669C6804F00304FE
S315080021F0012C00F0A980CD68012D00F0C9800C687B
S31508002200D3F8B0500121A14025EA0101C3F8B01066
S31508002210B3F1A04F00F02281934E9449944DB342F6
S3150800222008BF2946102C00F0AF80112C63D0122C61
S3150800223000F0CA80002382F8403017B0F0BD0220B3
S3150800224017B0F0BDA4F11E059E698C684FF0070E05
S315080022500EFA05FE26EA0E06AC4034439C617FE77B
S31508002260DC684E6ACD6924F4401444EA4654012DCC
S31508002270DC607FF454AF546C44F020042846546460
S315080022804DE74D680E68D76C05EB45035B000233D6
S315080022901F259D4027EA050706FA03F347EA0306C2
S315080022A00138D66410651368002840F04681DC6C56
S315080022B0704F27403E43DE6420E7DE6E694D3540A9
S315080022C045EA876747F000463443DC668DE75E6E6D
S315080022D0644D354045EA876747F0004634435C66F7
S315080022E083E71E6E5F4D354045EA876747F000462F
S315080022F034431C6679E78D68EE019BD4B3F1A04F91
S31508002300594D00F0BD80AB4200F0B880544DAB4249
S3150800231000F0FE80584EB34200F0B2809D6805F08A
S315080023200305012D40F08D801D68ED0740F1B4804E
S31508002330536C43F02003536401207BE7546C44F04C
S31508002340200428465464FAE61C68E4073FF572AF91
S3150800235051E7886A012800F0C2801368404E0C686D
S31508002360B3424FEA042500F0C680434CA34200F06E
S31508002370C280CC6A2C430443DD6C3E482840204387
S31508002380D8640020D464B9E68D682F02B6D551E723
S315080023900C68D3F8B060A5403543092CC3F8B05093
S315080023A032D904EB44058E689F69A5F11B01072500
S315080023B08D4027EA050506FA01F12943996127E7C1
S315080023C044EA4564DC60BAE68D686D023FF532AFD3
S315080023D094E71C6EBF0604F0F844BC4222D05C6E3B
S315080023E004F0F844A74227D09C6E04F0F844A742AC
S315080023F01DD0DC6E04F0F844A7427FF4F6AEDC6E1E
S3150800240024F00044DC66F0E6651C8E685F6905EB1F
S31508002410450107258D4027EA050506FA01F12943F6
S315080024205961F5E61C6E24F000441C66D7E79C6EDD
S3150800243024F000449C66DCE75C6E24F000445C668D
S31508002440D2E7102C3FF4F6AE112C65D0122C7FF48F
S31508002450F1AE8B6843F480038B60EBE60449E1E652
S315080024600004005000F0FF830001005000070050F0
S315080024700003005000200882000500504FF0A045D8
S3150800248001959D6805F00305012D58D0019EB56894
S3150800249005F00305012D36D0102CD5D1B3F1A04F88
S315080024A07FF4C8AE2A4B2B4D1B688C68A5FB0353DB
S315080024B09B0C03EB83035B0044F400048C600093DD
S315080024C0009B002B3FF4B6AE009B013B0093009B9C
S315080024D0002BF9D1AEE66E1E354613686BE6086822
S315080024E01368040248E7082C1FD0142C21D01C2C92
S315080024F008BF10245CE6082819D014281BD01C280D
S3150800250008BF102035E73568EE073FF511AFC3E77A
S3150800251005F580750195B4E7B3F1A04F7FF48AAE4F
S315080025208B6843F080738B6084E6342440E634205D
S315080025301FE71C243CE61C201BE72046DEE51D6839
S31508002540EF073FF5F5AE019E002EA0D1A4E700BF28
S315080025500000002083DE1B4390F84030012B57D043
S31508002560F0B504684E680246A068012310F00C0016
S3150800257082F8403043D10F689F424FD0E36803F09A
S315080025801803182B46D0E3680869C3F3C1035B0038
S31508002590C3F1040320FA03FEE56805F01805182DB3
S315080025A000F08980E0684D69C0F3C1004000C0F1C1
S315080025B0040025FA00F3022F6AD0002E5BD0A06A29
S315080025C08D6800F0FF2040EA0E400343A362D4F86A
S315080025D0A4000123AB400343C4F8A4304FF40073AE
S315080025E0C9682360012961680CBF0B4321EA03030C
S315080025F0636000210023184682F84010F0BD516C34
S3150800260041F0200151640021184682F84010F0BDBF
S31508002610022070470B694FEA830EBDE7E5688F68AD
S31508002620D1F814E025F0FB4323F4800343EA8763DB
S315080026301E43E660E568E3680F69CE68216AC3F35E
S31508002640C103C5F3C1055B0001F0F0216D000EFA68
S3150800265003F30B4307FA05F543EA05438021236292
S3150800266021606168012E0CBF41F0800121F08001D4
S3150800267003466160C7E7A36A03F0FF23A362D4F8A1
S31508002680A430DB0CDB04C4F8A4304FF40073A7E7CE
S31508002690A6B1606A8D6800F0FF2040EA0E40034349
S315080026A06362D4F8A0000123AB400343C4F8A0300A
S315080026B04FF4807394E74B699B007CE7636A03F0E9
S315080026C0FF236362D4F8A030DB0CDB04C4F8A03027
S315080026D04FF4807384E700BF90F84020012A51D058
S315080026E0F0B502680346B2F1A04F4FF0010083F837
S315080026F0400097B03C4808D0824245D03B488242C9
S315080027005CD03B4CA24218BF002001909068470756
S315080027102ED4019CA06846072AD4B2F1A04F59D0FE
S31508002720314E3448344DB24208BF28460F687FB34D
S31508002730856825F460465D6B46EA45354E6835433F
S315080027408560956805F00305012D49D0A26802F059
S315080027500302012A36D08268896822F4716247EA40
S31508002760010E22F00F024EEA02028260002004E007
S315080027705A6C42F020025A640120002283F8402055
S3150800278017B0F0BD022070474FF0A0400190BDE79A
S31508002790816821F460418160916801F00301012993
S315080027A01AD0A26802F00302012A0FD0826822F426
S315080027B0716222F00F0282600020DEE700F5807069
S315080027C00190A3E72268D407D0D4C4E72268D207C9
S315080027D0CCD4EBE70848A9E71268D107C6D4E0E7E6
S315080027E01268D507B2D5C1E70001005000040050B1
S315080027F0000500500007005000030050704700BF56
S31508002800704700BF704700BF704700BF10B501464C
S3150800281088B00022362003F00BFC362003F040FC7B
S31508002820184BDA6942F01002DA61DB6903F010032B
S31508002830029301A903A8029B05F040FC069BC3B9B5
S3150800284005F0BEFB104C114B114A2260A3FB002376
S315080028509B0C0022013B40F2E73120466360E160B1
S315080028602261A260A26102F0FDFE30B1012008B02B
S3150800287010BD05F0A5FB4000E4E7204601F0E2FAAA
S3150800288008B010BD00100240D40A002083DE1B43A6
S3150800289000100040034B1A68D36823F00103D36085
S315080028A0704700BFD40A0020034B1A68D36843F068
S315080028B00103D360704700BFD40A002001F0B0B905
S315080028C0014802F08FBD00BFD40A0020704700BF40
S315080028D0704700BFC0B138B52422036880F8692064
S315080028E01A680025044622F001021A601D605D6020
S315080028F09D60FFF7EDFFE56684F8685084F8695037
S31508002900284684F86A5038BD0120704790F8693027
S31508002910202B01D002207047C9B1C2B190F86830A7
S31508002920012BF7D030B400230568A0F852202124E3
S31508002930C36680F869402C68C16444F08001A0F839
S31508002940502080F868301846296030BC704701204E
S31508002950704700BF90F86A30202B01D002207047DC
S3150800296049B342B390F86830012BF7D083684165C4
S31508002970B3F5805F4FF00101A0F85820A0F85A205F
S3150800298080F868101DD023B90369B3B17F23A0F876
S315080029905C30026800232221C36680F86A109168B9
S315080029A080F8683041F001019160116841F4907136
S315080029B018461160704701207047FF23A0F85C3065
S315080029C0E7E70369002BF8D140F2FF13A0F85C3063
S315080029D0DFE700BFF8B590F86940202C01D0022047
S315080029E0F8BD61B35AB390F86840012CF7D0044695
S315080029F00126006E84F86860134600252268A4F84C
S31508002A0052302126E566DFF844E084F869600D4F08
S31508002A100D4EA4F85030E16428324563C0F828E02A
S31508002A20C762066303F0FEFC236840221A629A68AE
S31508002A3084F8685042F0800228469A60F8BD012062
S31508002A40F8BD00BF312D00088D2D0008012D0008A6
S31508002A50F8B590F86A40202C01D00220F8BD00296C
S31508002A6030D0002A2ED090F86830012BF5D00446D5
S31508002A700127406E144E84F86870002513462227F5
S31508002A800A4621686265A4F85830E56684F86A70D3
S31508002A900E4F86620E4E4563C7620663243103F005
S31508002AA0C1FC236884F868501A6842F480721A6078
S31508002AB09A6842F001029A609A6842F040022846F3
S31508002AC09A60F8BD0120F8BD412D00087D2D00084B
S31508002AD08D2D000890F86830012B0FD090F86930DA
S31508002AE00122212B80F868201BD090F86A30222B0F
S31508002AF006D0002380F868301846704702207047D1
S31508002B0003689A685206F4D51A6822F480721A6025
S31508002B109A6822F001029A609A6822F040029A6046
S31508002B20E7E703689A681106DFD59A6822F08002FB
S31508002B309A60DAE790F86830012B0FD090F8693080
S31508002B400122212B80F868201ED090F86A30222BAB
S31508002B5006D0002380F86830184670470220704770
S31508002B60036808221A621A6842F480721A609A6820
S31508002B7042F001029A609A6842F040029A60002385
S31508002B8080F86830184670470268936843F08003F7
S31508002B90936090F86A30222BDBD1E1E790F8693030
S31508002BA0212B10B504461FD094F86A30222B01D089
S31508002BB0002010BD23689A685206F9D59A68606E97
S31508002BC022F040029A6010B103F06EFC23681A687E
S31508002BD022F490721A609A68202122F001029A6003
S31508002BE0002084F86A1010BD03689A681106DBD5C0
S31508002BF09A68006E22F080029A6010B103F054FCC5
S31508002C0023681A68202122F0C0021A6084F8691025
S31508002C10CAE700BF38B503681A6822F4F0721A606A
S31508002C209A6822F001029A609A68110604460AD543
S31508002C309A68006E22F080029A6020B100234363EE
S31508002C4003F032FC23689A6852060AD59A68606EC1
S31508002C5022F040029A6020B10023436303F024FC6B
S31508002C602368002220210F25A4F852201046A4F834
S31508002C705A201D6284F8691084F86A10E26638BD25
S31508002C8003681A6822F0C00210B51A609A6812061C
S31508002C90044609D59A68006E22F080029A6018B137
S31508002CA00023436303F000FC00202023A4F852000D
S31508002CB084F8693010BD00BF03681A6822F4907260
S31508002CC010B51A609A6822F001029A609A6852064C
S31508002CD004460AD59A68406E22F040029A6020B1EE
S31508002CE00023436303F0E0FB236800200F21202222
S31508002CF0A4F85A00196284F86A2010BD704700BF0C
S31508002D0008B50368406A1B6813F020030BD10268F4
S31508002D10A0F85230936823F080039360136843F059
S31508002D204003136008BDFFF7E9FF08BD704700BF01
S31508002D3008B5406AFFF7FAFF08BD00BF704700BF35
S31508002D4008B50368406A1B6813F0200311D10268AE
S31508002D50A0F85A30136823F480731360936823F03D
S31508002D60010393609368202123F04003936080F861
S31508002D706A10FFF7E3FF08BD704700BF08B5406A51
S31508002D80FFF7FAFF08BD00BF704700BF406A08B5E5
S31508002D9090F86930212B1DD090F86A30222B06D086
S31508002DA0C36E43F01003C366FFF7EEFF08BD036862
S31508002DB09A685206F4D50022A0F85A201A6822F416
S31508002DC090721A609A68202122F001029A6080F8AF
S31508002DD06A10E5E703689A681106DDD50022A0F8AF
S31508002DE052201A68202122F0C0021A6080F8691061
S31508002DF0D2E700BF08B5436A0022A3F85A2018464E
S31508002E00A3F85220FFF7C0FF08BD00BF704700BFF8
S31508002E1038B503681A6822F4F0720446006E1A6020
S31508002E209A6822F001029A6028B19A6812F0800224
S31508002E3018BF234A4263616E29B19A6812F04002AC
S31508002E4018BF204A4A639A6815060BD59A6822F075
S31508002E5080029A6030B103F041FB28B3226E2368E2
S31508002E60002151639A6851060CD59A68606E22F063
S31508002E7040029A6030B103F031FB98B1626E236864
S31508002E8000215163002220210F25A4F85220204654
S31508002E90A4F85A20E2661D6284F8691084F86A105C
S31508002EA0FFF7B4FF002038BD23689A685206F9D5A3
S31508002EB09A68606E22F040029A600028DBD1F1E73A
S31508002EC0012F0008C92E000838B5436A596E1A6ED4
S31508002ED00020486312B1526B02B138BD1C6800224B
S31508002EE020210F25A3F852201846A3F85A20DA669F
S31508002EF0256283F8691083F86A10FFF787FF38BDE3
S31508002F0038B5436A196E5A6E0020486312B1526B7F
S31508002F1002B138BD1C68002220210F25A3F85220D3
S31508002F201846A3F85A20DA66256283F8691083F8EA
S31508002F306A10FFF76BFF38BD704700BF03681A6851
S31508002F4022F0C00210B51A609A6812F08002044690
S31508002F500DD09A68016E22F080029A60A9B10F4BD3
S31508002F604B63084603F0BAFA50B9002010BD202377
S31508002F70A0F8522080F86930FFF7DEFF002010BD68
S31508002F80206E436B9847002010BD2023A0F85210EE
S31508002F9080F86930FFF7D0FFE7E700BFA12F0008E8
S31508002FA008B5436A00212022A3F85210184683F870
S31508002FB06920FFF7C1FF08BD704700BF38B5036831
S31508002FC01A6822F490721A609A6822F001029A60CE
S31508002FD09A6812F0400204460DD09A68416E22F0B3
S31508002FE040029A60B9B1114B4B63084603F076FA72
S31508002FF060B9002038BD20210F25A0F85A201D628F
S3150800300080F86A10FFF7D8FF002038BD606E436B62
S315080030109847002038BD0F252022A0F85A101D62B7
S3150800302080F86A20FFF7C8FFE3E700BF31300008E1
S31508003030436A10B5196800200F242022A3F85A0005
S315080030400C62184683F86A20FFF7B6FF10BD00BF6A
S315080030500268936943F004039361704790F8682007
S31508003060012A16D00268242130B480F86910116844
S3150800307021F00C011160116803460024202541F057
S3150800308008011160204683F8695083F8684030BC0F
S3150800309070470220704700BF90F86820012A16D0B2
S315080030A00268242130B480F86910116821F00C01F7
S315080030B01160116803460024202541F004011160BF
S315080030C0204683F8695083F8684030BC7047022070
S315080030D0704700BF90F86820012A13D003462422BF
S315080030E0006810B483F8692082692024002142F020
S315080030F002028261084683F8694083F868105DF821
S31508003100044B70470220704790F8692090F86A00CF
S3150800311010437047C06E7047F8B5054693482C684B
S31508003120AF682E6923686A69E969D5F818E03E43ED
S31508003130324323F416430A4323F00C031343236054
S315080031406768EE682A6A27F440573E436660A368B4
S315080031504EEA020223F4306313438442A3603FD04D
S31508003160834B9C425ED0834B9C426BD0824B9C42E5
S3150800317019D0824B9C4205D0B1F5004F00F0CE80A5
S315080031800120F8BD03F5E0331B6B03F44003B3F5E8
S31508003190800F7ED011D9B3F5000F5FD0B3F5400F7D
S315080031A000F09980E8E703F5E2331B6B03F440135C
S315080031B0B3F5801F6DD000F28780002BDCD1B1F506
S315080031C0004F02D104F0FCFE6EE004F0F9FE6B68D5
S315080031D000EB5300B0FBF3F080B2E0600020F8BDCE
S315080031E0674B684A1B6B03F00303B1F5004FD35CCA
S315080031F040F09780082B00F2918001A252F823F044
S31508003200C5310008A5320008DD3200081D33000864
S31508003210993200081D3300081D3300081D330008C5
S315080032206332000803F5E6331B6B03F44033B3F54A
S31508003230803F2ED0C1D9B3F5003F0FD0B3F5403F3C
S3150800324049D099E703F5E4331B6B03F44023B3F540
S31508003250802F1ED0B1D9B3F5002F4FD1B1F5004F4D
S315080032600DD16A68530803F58033B3FBF2F2C2F353
S31508003270420322F00F0213439BB2002022E06A6841
S31508003280530803F50043B3FBF2F39BB2E360002057
S31508003290F8BDB1F5004F02D104F090FD04E004F04A
S315080032A08DFD94E704F0A4FE6A682C68530803EBC6
S315080032B04000B0FBF2F0C0F3420320F00F000343D6
S315080032C09BB20020E360F8BDB3F5001FC6D0B3F586
S315080032D0401F7FF451AFB1F5004F13D169684A0812
S315080032E002F5740303F51053B3FBF1F3C3F342027B
S315080032F023F00F0313439BB20020E3E7B3F5402FF7
S31508003300E9D039E769684A0802F5F40303F59053EA
S31508003310B3FBF1F39BB2E3600020F8BD0023012064
S31508003320D0E7082B3FF62CAF01A252F823F000BFD6
S31508003330CB310008553300080533000881310008F1
S315080033409F32000881310008813100088131000868
S315080033507F32000804F04CFE6B68044A00EB530009
S31508003360B0FBF3F080B2D0600020F8BD0038014011
S315080033700044004000480040004C00400050004017
S3150800338000100240D8E10008436ADA0710B406D5EF
S315080033900468826A616821F400310A4362609C0706
S315080033A006D50468C26A616821F480310A436260FE
S315080033B0590706D50468026B616821F480210A431F
S315080033C062601A0706D50468426B616821F40041F9
S315080033D00A436260DC0606D50468826BA16821F49C
S315080033E080510A43A260990606D50468C26BA16893
S315080033F021F400510A43A2605A0609D50168046CF3
S315080034004A6822F480122243B4F5801F4A600BD022
S315080034101B0606D50168826C4B6823F40023134308
S315080034204B605DF8044B70474C68426C24F4C0044A
S3150800343022434A60ECE700BF2DE9F843089D804621
S315080034400F4616469946D8F8004001E06B1C0AD18B
S31508003450E06937EA00030CBF012000208642F5D058
S315080034600020BDE8F8833DB100F0E2FBC9EB00009F
S315080034708542E8D2D8F80040236823F4D073236045
S31508003480A368202223F001030021A360032088F803
S31508003490692088F8681088F86A20BDE8F88300BFB4
S315080034A02DE9F0410D4690F86910202984B003D023
S315080034B0022004B0BDE8F08195B38AB31F4690F8A0
S315080034C06830012B0446F3D0002001212123E06651
S315080034D084F8681084F86930039200F0A9FB039A0F
S315080034E0A4F850208046A4F85220B4F85260B6B228
S315080034F0434600228021204606B3B4F8526000975E
S31508003500013EB6B2A4F85260FFF796FFA0B9A368C9
S31508003510B3F5805F06D023682A781A850135E4E773
S315080035200120C6E72369002BF5D135F8023B22684E
S31508003530C3F308031385D8E70320BAE70097324692
S315080035404021FFF779FF0028F6D1202384F8680088
S3150800355084F86930ADE700BF2DE9F0430E4690F8D0
S315080035606A10202985B003D0022005B0BDE8F08393
S31508003570002E3CD0002A3AD01F4690F86830012B1E
S315080035800446F1D0222300200121E06684F8681061
S3150800359084F86A30039200F04BFBA368039AA4F8F8
S315080035A05820B3F5805F8146A4F85A203FD093B3DC
S315080035B0B4F85C80B4F85A50ADB24B4600222021CC
S315080035C0204605B3B4F85A500097013DADB2A4F8A9
S315080035D05A50FFF731FFE0B9A368B3F5805F08D00A
S315080035E023689B8C08EA030333700136E2E701205F
S315080035F0BBE72369002BF3D123689B8C08EA0303F6
S3150800360026F8023BD6E784F86850284684F86A10FC
S31508003610ABE70320A9E7236923B14FF07F08A4F895
S315080036205C80C7E74FF0FF08A4F85C80C2E723690F
S31508003630002BF7D140F2FF18A4F85C80BAE700BF68
S3150800364070B50446002582B0C56600F0F1FA236815
S315080036501A68120706460CD41B685B0717D4202382
S31508003660002084F8693084F8680084F86A3002B06B
S3150800367070BD6FF07E4300932A4603464FF400114F
S315080036802046FFF7D9FE80B1032002B070BD6FF067
S315080036907E420092334600224FF480012046FFF70F
S315080036A0CBFE0028DBD00320EFE72368D4E700BF72
S315080036B090B390F8693010B503F0FF02044603B3DF
S315080036C02268242384F86930136823F00103136001
S315080036D02046FFF721FD01281CD0636AB3B9236889
S315080036E05A6822F490425A609A6822F02A029A602E
S315080036F01A6842F0010220461A60BDE81040FFF73A
S315080037009FBF80F8682004F0DFFED9E72046FFF760
S315080037103BFEE4E7012010BD01207047002836D0A3
S3150800372090F8693010B503F0FF02044623B3226807
S31508003730242384F86930136823F0010313602046B4
S31508003740FFF7EAFC012820D0636AD3B923685A68D0
S3150800375022F490425A609A6822F022029A609A6885
S3150800376042F008029A601A6842F0010220461A607E
S31508003770BDE81040FFF764BF80F8682004F0A4FE97
S31508003780D5E72046FFF700FEE0E7012010BD01203F
S31508003790704700BF002842D038B5C369B3F5004F5B
S315080037A0044631D083687BBB90F869300D4603F038
S315080037B0FF025BB32268242384F86930136823F078
S315080037C0010313602046FFF7A7FC01281CD0636A93
S315080037D00BBB23685A6822F400625A609A6822F082
S315080037E02A029A605A6842F480425A60596821F05F
S315080037F02001294359601A6842F0010220461A60DE
S31508003800BDE83840FFF71CBF012038BD80F86820A6
S3150800381004F05AFECEE72046FFF7B6FDD9E70120A9
S31508003820704700BF002843D090F8693070B5154638
S3150800383004460E4603F0FF0243B32268242384F8A5
S315080038406930136823F0010313602046FFF764FC10
S3150800385001282BD0636AF3B923685A6822F4904288
S315080038605A609A68B5F5006F22F02A029A6016D057
S315080038701A6822F4006215431D601A6842F00102B4
S3150800388020461A60BDE87040FFF7DABE80F8682067
S3150800389004F01AFED1E72046FFF776FDDCE7596803
S315080038A021F07F4141EA06665E60E1E7012070BDCE
S315080038B00120704790F86820012A01D1022070473C
S315080038C030B42422016880F869200A68012520247A
S315080038D042F4005280F868500A6080F8694030BCAB
S315080038E0FFF7AEBE90F86820012A01D10220704782
S315080038F030B42422016880F869200A68012520244A
S3150800390022F4005280F868500A6080F8694030BC9A
S31508003910FFF796BE90F86930212B01D00220704738
S31508003920B0F852309BB28BB18368B3F5805F18D07C
S31508003930C36C0268591CC1641B781385B0F85230F1
S31508003940013B9BB2A0F8523000207047026811680C
S3150800395021F080011160116841F04001184611609C
S3150800396070470369002BE3D1C36C016833F8022B57
S31508003970C2F308020A85C364E0E700BF016810B510
S315080039800B68202423F040030B6080F86940FFF79A
S31508003990B5F9002010BD00BF38B590F86A30222B63
S315080039A006D00268936943F008039361022038BD84
S315080039B0036881689B8CB0F85C20B1F5805F9BB288
S315080039C01DD0416D13404A1C42650B70B0F85A4031
S315080039D0013CA4B2A0F85A400CB1002038BD0368D7
S315080039E0196821F4907119609968202521F0010160
S315080039F0996080F86A50FFF7A1F9204638BD016939
S31508003A000029DED1416D134021F8023B4165DDE70F
S31508003A100368DA69196870B51507044610D1960661
S31508003A205BD49868D50201D540027FD4160602D524
S31508003A300D0600F18C80500601D54A0664D470BD87
S31508003A40986810F001054ED0D60707D5C80505D5E4
S31508003A5001201862E06E40F00100E066960748D53E
S31508003A603DB102201862E06E40F00400E06650079F
S31508003A7043D4100703D58E0651D4002D4FD1E06EDE
S31508003A800028DCD0900601D5890665D4E26E1207B7
S31508003A9003D49A6812F0400563D01A6822F490722B
S31508003AA01A609A68202122F001029A6084F86A1046
S31508003AB09A68560647D59A68606E22F040029A6060
S31508003AC0002840D0294B436302F008FD0028B6D0F1
S31508003AD0606EBDE87040436B18478D06A1D5BDE8FA
S31508003AE07040FFF759BF11F4907F9BD0D607B5D524
S31508003AF0ACE75607BDD5002DBBD004201862E06E92
S31508003B0040F00200E066B4E71A68202122F040027D
S31508003B101A60204684F86910FFF7F0F870BD08208F
S31508003B201862E06E40F00800E066A8E720224FF42D
S31508003B3080111962204684F8692084F86A20BDE855
S31508003B40704002F0D3B92046FFF71EF970BD204633
S31508003B50BDE87040FFF7DEBE2046FFF71DFF23686D
S31508003B6094E72046FFF710F9E56670BDF52D0008C5
S31508003B7010B483B002AB006803E906004268BDF8DA
S31508003B8004109DF8064022F010020A43426043687A
S31508003B9023F07F4343EA0463436003B05DF8044BB4
S31508003BA0704700BF704700BF704700BF10B5074B8E
S31508003BB04FF0FF3200241A611C61DA60DC609A62F9
S31508003BC09C62FEF71DFE204610BD00BF0010024095
S31508003BD0084B094A1B6810B5A2FB0323044698093B
S31508003BE002F08AFA214600224FF0FF3002F020FA4E
S31508003BF0002010BD00000020D34D6210074A08B50A
S31508003C00136843F010031360032002F0FFF90F2036
S31508003C10FEF7FCFDFEF7F2FD002008BD002002407D
S31508003C20024A136801331360704700BF140B002063
S31508003C30014B1868704700BF140B002010B582B0FE
S31508003C400190FFF7F5FF0446FFF7F2FF019B001B03
S31508003C509842F9D302B010BD024A136823F0020352
S31508003C601360704710E000E0024A136843F002034D
S31508003C701360704710E000E04FF08270704700BF95
S31508003C80014B1868000C7047002004E0024B1868C6
S31508003C90C0F30B00704700BF002004E0024A5368D7
S31508003CA043F0010353607047002004E0024A53685A
S31508003CB023F0010353607047002004E0024A53686A
S31508003CC043F0020353607047002004E0024A536839
S31508003CD023F0020353607047002004E0024A536849
S31508003CE043F0040353607047002004E0024A536817
S31508003CF023F0040353607047002004E00268486814
S31508003D00936823F07003034330B423F480330C68BC
S31508003D1023F0070323435028936036D024D960281C
S31508003D200ED070280AD1CB688C6890680D69234339
S31508003D3020F47F410B4343EA0523936030BC704768
S31508003D40106A8C680D6920F0100010629169136A78
S31508003D5021F4704123F0A00341EA053143EA041334
S31508003D60916130BC136270474028E7D1146A106A23
S31508003D700D6920F001011162936923F0F00343EA0B
S31508003D8005139361146230BC7047136A106A8D6814
S31508003D900C6920F001001062916923F00A0321F0F2
S31508003DA0F0012B4341EA0411916130BC136270475C
S31508003DB0704700BF704700BF0223026810B580F83D
S31508003DC03D30116A41F211130B40044643B9116A9A
S31508003DD040F244430B401BB9136823F001031360F8
S31508003DE02046FFF7E7FF002084F83D0084F83C00F2
S31508003DF010BD00BF0168022210B480F83D200A6891
S31508003E000124034622430A60002083F83D405DF8FA
S31508003E10044B70470223026880F83D30116A41F26C
S31508003E2011130B4043B9116A40F244430B401BB9C6
S31508003E30136823F001031360012380F83D30002046
S31508003E40704700BF0368DA6842F00102DA601A6850
S31508003E5042F001021A600020704700BF0368DA6862
S31508003E6022F00102DA60196A41F211120A4042B9D7
S31508003E70196A40F244420A401AB91A6822F0010245
S31508003E801A600020704700BF70B590F83D40E4B254
S31508003E90022C21D090F83D40E4B2012C15D00446FE
S31508003EA01346006A22680D4E0D4D866205632C3254
S31508003EB002F0B8FA2368DA6842F48072DA601A689F
S31508003EC042F001021A60002070BD19B1022380F881
S31508003ED03D30E4E7002AF9D0204670BD2D5300088E
S31508003EE04D5500080368D96821F48071D960196AAC
S31508003EF041F211120A4042B9196A40F244420A4094
S31508003F001AB91A6822F001021A60012380F83D30B6
S31508003F1000207047704700BF704700BF0223026841
S31508003F2010B580F83D30116A41F211130B40044672
S31508003F3043B9116A40F244430B401BB9136823F096
S31508003F40010313602046FFF7E7FF002084F83D00D1
S31508003F5084F83C0010BD00BF036801201A6A00FA05
S31508003F6001F110B422EA01021B4C1A621A6A1A629B
S31508003F70A34220D0194A93421DD002F540629342CB
S31508003F8019D002F58062934215D002F580629342F9
S31508003F9011D0196A41F211120A4042B9196A40F25F
S31508003FA044420A401AB91A6822F001021A6000202F
S31508003FB05DF8044B7047196A41F211120A40002A4B
S31508003FC0E7D1196A40F244420A40002AE1D15A6C04
S31508003FD022F400425A64DCE7002C01400034014018
S31508003FE0704700BF704700BF0223026810B580F80B
S31508003FF03D30116A41F211130B40044643B9116A68
S3150800400040F244430B401BB9136823F001031360C5
S315080040102046FFF7E7FF002084F83D0084F83C00BF
S3150800402010BD00BF03680122186A02FA01F120EAEE
S31508004030010010B418621A6A104C1143A34219629F
S3150800404016D00F4A934213D002F5406293420FD01E
S3150800405002F5806293420BD002F58062934207D044
S315080040601A685DF8044B42F0010200201A60704796
S315080040705A6C42F400425A64F2E700BF002C014031
S3150800408000340140FFF7CEBF036830B41A6A1F4DEB
S31508004090012404FA01F122EA01021A621A6A1A6272
S315080040A0AB4222D01A4A93421FD002F5406293428D
S315080040B01BD002F58062934217D002F580629342C4
S315080040C013D0196A41F211120A4042B9196A40F22C
S315080040D044420A401AB91A6822F001021A600123FA
S315080040E080F83D3030BC00207047196A41F2111241
S315080040F00A40002AE5D1196A40F244420A40002AD9
S31508004100DFD15A6C22F400425A64DAE7002C0140E7
S315080041100034014010B40C2944D8DFE801F03743D5
S3150800412043433D4343433143434307000368DA6847
S3150800413042F01002DA60186A1E4C012202FA01F1F6
S3150800414020EA01021A621A6AA34241EA02011962C6
S315080041502AD0194A934227D002F54062934223D0C7
S3150800416002F5806293421FD002F5806293421BD00B
S315080041701A685DF8044B42F0010200201A60704785
S315080041800368DA6842F00802DA60D4E70368DA6896
S3150800419042F00202DA60CEE70368DA6842F0040207
S315080041A0DA60C8E70368C6E75A6C42F400425A6404
S315080041B0DEE700BF002C014000340140FFF7AABF2C
S315080041C010B40C294CD8DFE801F0454B4B4B3F4B5C
S315080041D04B4B394B4B4B07000368DA6822F0100249
S315080041E0DA601A6A284C012000FA01F122EA010174
S315080041F019621A6A1A62A34234D0244A934231D009
S3150800420002F5406293422DD002F58062934229D08E
S3150800421002F58062934225D0196A41F211120A40CA
S3150800422042B9196A40F244420A401AB91A6822F099
S3150800423001021A6000205DF8044B70470368DA68CB
S3150800424022F00802DA60CCE70368DA6822F0040292
S31508004250DA60C6E70368DA6822F00202DA60C0E7C5
S315080042600368BEE7196A41F211120A40002AD3D13F
S31508004270196A40F244420A40002ACDD15A6C22F407
S3150800428000425A64C8E700BF002C014000340140D0
S31508004290FFF796BFF8B590F83D40E4B2022C15D06A
S315080042A090F83D40E4B2012C0CD00D4604460C2D86
S315080042B074D8DFE805F00D73737351737373407325
S315080042C073736200002A6BD1002B69D02046F8BDB3
S315080042D02668406A3749384F81620763114606F1F6
S315080042E0340202F09FF82368DA6842F40072DA6052
S315080042F0186A324C012202FA05F120EA01021A6212
S315080043001A6AA34241EA020119624DD02C4A934225
S315080043104AD002F54062934246D002F58062934243
S3150800432042D002F5806293423ED01A6842F00102FA
S315080043301A600020F8BD2668C06A1E491E4F8162B1
S315080043400763114606F13C0202F06CF82368DA6846
S3150800435042F40062DA60CBE72668806A1549164F90
S3150800436081620763114606F1380202F05BF823689A
S31508004370DA6842F48062DA60BAE72668006B0D49AB
S315080043800D4F81620763114606F1400202F04AF8B2
S315080043902368DA6842F48052DA60A9E70368A7E777
S315080043A0022480F83D4080E75A6C42F400425A6481
S315080043B0BBE700BF955300084D550008002C014087
S315080043C000340140FFF766BF30B40C294ED8DFE849
S315080043D001F0474D4D4D414D4D4D3B4D4D4D07005F
S315080043E00368DA6822F48052DA601A6A294D0124D1
S315080043F004FA01F122EA010119621A6A1A62AB4249
S3150800440036D0254A934233D002F5406293422FD0E4
S3150800441002F5806293422BD002F58062934227D040
S31508004420196A41F211120A4042B9196A40F2444225
S315080044300A401AB91A6822F001021A60012380F8A4
S315080044403D3030BC002070470368DA6822F4006209
S31508004450DA60CAE70368DA6822F48062DA60C4E7D9
S315080044600368DA6822F40072DA60BEE70368BCE71C
S31508004470196A41F211120A40002AD1D1196A40F28A
S3150800448044420A40002ACBD15A6C22F400425A64AC
S31508004490C6E700BF002C014000340140FFF794BF77
S315080044A0704700BF704700BF0223026810B580F846
S315080044B03D30116A41F211130B40044643B9116AA3
S315080044C040F244430B401BB9136823F00103136001
S315080044D02046FFF7E7FF002084F83D0084F83C00FB
S315080044E010BD00BF03680122186A02FA01F120EA2A
S315080044F0010018621A6A114319621A6842F0010229
S315080045001A600020704700BF036801201A6A00FA83
S3150800451001F122EA01021A621A6A1A62196A41F25A
S3150800452011120A4042B9196A40F244420A401AB9BD
S315080045301A6822F001021A60002070470C292FD849
S31508004540DFE801F0282E2E2E222E2E2E1C2E2E2EA1
S3150800455007000368DA6842F01002DA60186A012276
S3150800456002FA01F120EA01021A621A6A1143196273
S315080045701A6842F001021A60002070470368DA6878
S3150800458042F00802DA60E9E70368DA6842F00402F2
S31508004590DA60E3E70368DA6842F00202DA60DDE728
S315080045A00368DBE70C2938D8DFE801F031373737FD
S315080045B02B3737372537373707000368DA6822F08D
S315080045C01002DA601A6A012000FA01F122EA0101F2
S315080045D019621A6A1A62196A41F211120A4042B934
S315080045E0196A40F244420A401AB91A6822F00102CE
S315080045F01A60002070470368DA6822F00802DA6059
S31508004600E0E70368DA6822F00402DA60DAE70368AA
S31508004610DA6822F00202DA60D4E70368D2E700BF5C
S31508004620F8B590F83D40E4B2022C12D090F83D401F
S31508004630E4B2012C0FD00D4604460C2D5CD8DFE8F9
S3150800464005F0105B5B5B2E5B5B5B3D5B5B5B4C006D
S315080046501BB12046F8BD002AFAD0022480F83D4056
S31508004660E9E72168406A254F254E8762066334319B
S3150800467001F0D8FE2068C36843F40073C360026A79
S31508004680012303FA05F122EA01030362036A1943C7
S315080046900162036843F0010303600020F8BD216846
S315080046A0806A164F164E87620663383101F0BAFEE5
S315080046B02068C36843F48063C360E0E72168C06A82
S315080046C00E4F0F4E876206633C3101F0ABFE206841
S315080046D0C36843F40063C360D1E72168006B074FE2
S315080046E0074E87620663403101F09CFE2068C36866
S315080046F043F48053C360C2E70068C0E74553000827
S315080047004D55000810B40C293DD8DFE801F0363CB9
S315080047103C3C303C3C3C2A3C3C3C07000368DA689D
S3150800472022F48052DA601A6A012404FA01F122EAB4
S31508004730010119621A6A1A62196A41F211120A40CB
S3150800474042B9196A40F244420A401AB91A6822F074
S3150800475001021A60012380F83D305DF8044B002001
S3150800476070470368DA6822F40062DA60DBE70368F8
S31508004770DA6822F48062DA60D5E70368DA6822F438
S315080047800072DA60CFE70368CDE700BF704700BF65
S31508004790704700BF0223026810B580F83D30116AE1
S315080047A041F211130B40044643B9116A40F24443DF
S315080047B00B401BB9136823F0010313602046FFF76B
S315080047C0E7FF002084F83D0084F83C0010BD00BFD8
S315080047D0036815491A6A22F001021A621A6A42F037
S315080047E001021A621A6A22F010021A621A6A8B42C7
S315080047F042F010021A6210D00C4A93420DD002F50C
S315080048004062934209D002F58062934205D002F5D0
S315080048108062934201D0002070475A6C42F40042ED
S315080048205A640020704700BF002C01400034014044
S3150800483003681F491A6A22F001021A621A6A1A6282
S315080048401A6A22F010021A621A6A1A628B421ED07B
S31508004850184A93421BD002F54062934217D002F5DC
S315080048608062934213D002F5806293420FD0196A90
S3150800487041F211120A4042B9196A40F244420A400A
S315080048801AB91A6822F001021A6000207047196ADC
S3150800489041F211120A40002AE9D1196A40F244424B
S315080048A00A40002AE3D15A6C22F400425A64DEE731
S315080048B0002C01400034014003681949DA6842F0C7
S315080048C00202DA60DA6842F00402DA601A6A22F052
S315080048D001021A621A6A42F001021A621A6A22F080
S315080048E010021A621A6A8B4242F010021A6210D03B
S315080048F00C4A93420DD002F54062934209D002F564
S315080049008062934205D002F58062934201D000206E
S3150800491070475A6C42F400425A640020704700BF40
S31508004920002C01400034014003682349DA6822F06C
S315080049300202DA60DA6822F00402DA601A6A22F001
S3150800494001021A621A6A1A621A6A22F010021A62B6
S315080049501A6A1A628B421ED0184A93421BD002F575
S315080049604062934217D002F58062934213D002F553
S31508004970806293420FD0196A41F211120A4042B975
S31508004980196A40F244420A401AB91A6822F001022A
S315080049901A6000207047196A41F211120A40002A6B
S315080049A0E9D1196A40F244420A40002AE3D15A6C16
S315080049B022F400425A64DEE7002C0140003401402C
S315080049C0704700BF704700BF0223026810B580F821
S315080049D03D30116A41F211130B40044643B9116A7E
S315080049E040F244430B401BB9136823F001031360DC
S315080049F02046FFF7E7FF002084F83D0084F83C00D6
S31508004A0010BD00BFD1B1042916D003681A6A22F076
S31508004A1001021A621A6A42F001021A621A6A22F03E
S31508004A2010021A621A6A42F010021A621A6842F0F2
S31508004A3001021A60002070470368EFE703681A6AE4
S31508004A4022F001021A621A6A42F001021A62EDE7BE
S31508004A5001B304291CD003681A6A22F001021A62FB
S31508004A601A6A1A621A6A22F010021A621A6A1A6214
S31508004A70196A41F211120A4042B9196A40F24442CF
S31508004A800A401AB91A6822F001021A600020704713
S31508004A900368E7E703681A6A22F001021A621A6ACB
S31508004AA01A62E5E700292ED004291ED003681A6A7F
S31508004AB022F001021A621A6A42F001021A621A6A9E
S31508004AC022F010021A621A6A42F010021A62DA68B2
S31508004AD042F00202DA60DA6842F00402DA601A6822
S31508004AE042F001021A600020704703681A6A22F031
S31508004AF010021A621A6A42F010021A62DA6842F062
S31508004B000402DA60EBE703681A6A22F001021A6205
S31508004B101A6A42F001021A62DA6842F00202DA60A0
S31508004B20DDE700BF03681A6AD9B922F001021A62E2
S31508004B301A6A1A62DA6822F00202DA60196A41F21F
S31508004B4011120A4042B9196A40F244420A401AB997
S31508004B501A6822F001021A60012380F83D3000200D
S31508004B607047042913D022F001021A621A6A1A62DF
S31508004B701A6A22F010021A621A6A1A62DA6822F0AF
S31508004B800202DA60DA6822F00402DA60D6E722F076
S31508004B9010021A621A6A1A62DA6822F00402DA60E5
S31508004BA0CCE700BF2DE9F04190F83D40BDF818600C
S31508004BB0E4B2022C0FD090F83D40012C0ED0042907
S31508004BC01F460C46054615D03C2950D0002930D042
S31508004BD00020BDE8F0812046BDE8F081002A7CD09F
S31508004BE0002B7AD00224042980F83D401F460C4643
S31508004BF00546E9D12968806A3A4B3B4C83623A46B6
S31508004C0033460463383101F00DFC2B68DA6842F448
S31508004C108062DA601A6842F001021A601A6A22F0A3
S31508004C2010021A621A6A42F010021A620020BDE8DF
S31508004C30F0812968406A2B4B2B4F83620763334602
S31508004C40343101F0EFFB2B68DA6842F40072DA605F
S31508004C501A6842F001021A601A6A22F001021A6200
S31508004C601A6A42F0010220461A62BDE8F0812968F4
S31508004C70406ADFF870801C4CC0F82880334604630D
S31508004C80343101F0CFFB2968A86A33463A46C0F8A2
S31508004C9028800463383101F0C5FB2B681A6842F096
S31508004CA001021A601A6A22F001021A621A6A42F0AE
S31508004CB001021A621A6A22F010021A621A6A42F08D
S31508004CC010021A62DA6842F40072DA60DA6842F4AC
S31508004CD08062DA600020BDE8F081002E82D00120D3
S31508004CE0BDE8F081455300084D55000803681A6A67
S31508004CF0D9B922F001021A621A6A1A62DA6822F42B
S31508004D000072DA60196A41F211120A4042B9196A48
S31508004D1040F244420A401AB91A6822F001021A609F
S31508004D20012380F83D3000207047042913D022F073
S31508004D3001021A621A6A1A621A6A22F010021A62C2
S31508004D401A6A1A62DA6822F40072DA60DA6822F4F9
S31508004D508062DA60D6E722F010021A621A6A1A62CC
S31508004D60DA6822F48062DA60CCE700BFF8B590F81A
S31508004D703D40069DE4B2022C19D090F83D40E4B2BD
S31508004D80012C2AD0B2F5006F16460F4604462FD0DE
S31508004D900FD8B2F5007F40D0B2F5806F41D0B2F59A
S31508004DA0807F0FD1006A2268244924E0BDB12046DD
S31508004DB0F8BDB2F5005F2CD0B2F5804F39D0B2F508
S31508004DC0805F32D023683D439D64DA68012116432B
S31508004DD0DE60002084F83D10F8BD002BE6D00224E2
S31508004DE0B2F5006F80F83D4016460F460446CFD10F
S31508004DF0C06A22681249DFF854C081624FEA152E4C
S31508004E001946C0F830C04C320EF1010301F00AFB16
S31508004E10D8E7406B22680B49EDE7406A22680849E3
S31508004E20E9E7806A22680649E5E7006B22680449D3
S31508004E30E1E7806B22680449DDE700BF2D530008CF
S31508004E4095530008B5730008395500084D550008F4
S31508004E50F8B590F83D40069DE4B2022C19D090F8BA
S31508004E603D40E4B2012C2AD0B2F5006F16460F4633
S31508004E7004462FD00FD8B2F5007F40D0B2F5806F28
S31508004E8041D0B2F5807F0FD1006A2168244A24E018
S31508004E90BDB12046F8BDB2F5005F2CD0B2F5804F03
S31508004EA039D0B2F5805F32D023683D439D64DA6815
S31508004EB001211643DE60002084F83D10F8BD002B62
S31508004EC0E6D00224B2F5006F80F83D4016460F463C
S31508004ED00446CFD1C06A2168124ADFF854C08262FC
S31508004EE04FEA152E1A46C0F830C04C310EF10103B0
S31508004EF001F098FAD8E7406B21680B4AEDE7406A5B
S31508004F002168084AE9E7806A2168064AE5E7006BEE
S31508004F102168044AE1E7806B2168044ADDE700BF9F
S31508004F202D53000845530008B57300083955000885
S31508004F304D550008B1F5006F38B50C46054630D01A
S31508004F4012D9B1F5005F24D0B1F5804F1DD0B1F567
S31508004F50805F02D1006B01F0A7FA2B68D96821EAB5
S31508004F600404DC60002038BDB1F5007F15D0B1F52A
S31508004F70806F06D0B1F5807FEFD1006A01F094FA10
S31508004F80EBE7806A01F090FAE7E7806B01F08CFAAC
S31508004F90E3E7406B01F088FADFE7406A01F084FA3C
S31508004FA0DBE7C06A01F080FAD7E700BFFFF7C2BFA8
S31508004FB090F83C20012A0FD030B403460568012436
S31508004FC00220002283F83D006961104683F83D40BF
S31508004FD083F83C2030BC70470220704790F83C307C
S31508004FE0012B25D04B68F0B401250224AB4280F88A
S31508004FF03C5080F83D401DD00C2A10D8DFE802F05E
S31508005000270F0F0F2F0F0F0F070F0F0F37000B6804
S315080050100268002B42D0D36943F08003D361002392
S31508005020012280F83D2080F83C30F0BC18467047D5
S31508005030022070470768CB68BC688D680E6924F43F
S315080050407F442B43234343EA0623BB60D4E70B681C
S315080050500268A3B1936943F080039361DFE70B68A5
S315080050600268B3B1936943F400439361D7E70B68C9
S3150800507002684BB1D36943F40043D361CFE7936920
S3150800508023F080039361CAE7D36923F40043D3610D
S31508005090C5E7936923F400439361C0E7D36923F016
S315080050A08003D361BBE700BF90F83C30012B40D0AA
S315080050B00222036870B480F83D209D680C685D4A3A
S315080050C0402C02EA05024FF0010580F83C509A6030
S315080050D079D018D9702C62D02DD9B4F5805F57D005
S315080050E0B4F5005F1CD19C688A684D68CE682A436F
S315080050F024F47F410A4342EA06229A609A6842F4F7
S3150800510080429A600CE0102C32D038D9202C72D00C
S31508005110302C05D19A6822F0700242F037029A6064
S315080051200023012280F83D2080F83C3070BC1846E8
S31508005130704702207047502C64D0602CF0D11C6A4E
S315080051404D68CE6824F010041C6299691A6A21F425
S31508005150704122F0A00242EA051241EA063199613D
S315080051601A629A6822F0700242F067029A60D7E7DC
S315080051709A6822F0700242F017029A60D0E7002C73
S31508005180CED19A6822F0700242F007029A60C7E709
S315080051909A6822F4803222F007029A60C0E79C6877
S315080051A08A684D68CE682A4324F47F410A4342EA56
S315080051B006229A609A6822F4803222F0770242F038
S315080051C077029A60ACE71A6A1C6A4E68CD6824F0C2
S315080051D001041C62996922F00A0221F0F0013243A7
S315080051E041EA051199611A629A6822F0700242F042
S315080051F047029A6094E79A6822F0700242F0270202
S315080052009A608DE71A6A1C6A4E68CD6824F0010414
S315080052101C62996922F00A0221F0F001324341EA40
S31508005220051199611A629A6822F0700242F05702D3
S315080052309A6075E78800FEFF0268536823F08003CA
S31508005240194351600020704790F83C20012A01D18B
S315080052500220704738B504460125022380F83C50E1
S3150800526080F83D30FEF74AFD2368DA6822F04002EE
S31508005270DA60DA68002122F48042DA60084684F8A7
S315080052803D5084F83C1038BD90F83C20012A01D1E5
S315080052900220704738B504460125022380F83C50A1
S315080052A080F83D30FEF72AFD2368DA6842F04002AE
S315080052B0DA60DA68002122F48042DA60084684F867
S315080052C03D5084F83C1038BD90F83C30012B02461E
S315080052D00AD00C2926D8DFE801F010252525172540
S315080052E025251E25252509000220704703681B6C05
S315080052F00021184682F83C10704703685B6B002152
S31508005300184682F83C10704703689B6B00211846C4
S3150800531082F83C1070470368DB6B0021184682F858
S315080053203C1070470023E3E7704700BF08B5406AA2
S31508005330012380F83D30FDF7C1FA08BD704700BF6C
S31508005340704700BF10B5446A626A0123904284F828
S315080053503D300FD0A36A984213D0E36A984213D01F
S31508005360236B984205D02046FFF7EAFF00232377F0
S3150800537010BD082323772046FFF7E2FF0023237793
S3150800538010BD02232377EEE704232377EBE700BF5C
S31508005390704700BF10B5446A626A0123904284F8D8
S315080053A03D300FD0A36A984213D0E36A984213D0CF
S315080053B0236B984205D02046FFF7EAFF00232377A0
S315080053C010BD082323772046FFF7E2FF0023237743
S315080053D010BD02232377EEE704232377EBE700BF0C
S315080053E0704700BF03681A69910710B5044602D5CD
S315080053F0DA68920762D41A69500702D5DA68510743
S3150800540049D41A69120702D5DA68100731D41A691D
S31508005410D20602D5DA68D00618D41A69D10702D599
S31508005420DA68D2076BD41A69100602D5DA6811064B
S315080054306DD41A69520602D5DA68500657D41A6925
S31508005440910602D5DA68920649D410BD6FF01002AB
S315080054501A61DB69082213F4407F2277204661D15E
S31508005460FFF76CFF2046FFF793FF00222368227799
S31508005470D3E76FF008021A61DB69042299072277DD
S31508005480204655D1FFF75AFF2046FFF781FF002235
S3150800549023682277BBE76FF004021A619B69022230
S315080054A013F4407F227720463FD1FFF747FF204677
S315080054B0FFF76EFF002223682277A2E76FF0020249
S315080054C01A619B6901229B07027728D1FFF736FFED
S315080054D02046FFF75DFF0022236822778BE76FF0EF
S315080054E0200220461A61BDE8104001F061BF6FF046
S315080054F040021A612046FFF773FF23689FE76FF0A3
S3150800550001021A612046FDF7D9F923688BE76FF087
S3150800551080021A61204601F055FF236889E7FFF7E4
S315080055200FFFD8E7FFF70CFF9FE7FFF709FFC1E773
S31508005530FFF706FFABE700BF08B5406A012380F80E
